{
  "contractName": "ERC721",
  "abi": [
    {
      "anonymous": false,
      "inputs": [
        {
          "indexed": true,
          "internalType": "address",
          "name": "from",
          "type": "address"
        },
        {
          "indexed": true,
          "internalType": "address",
          "name": "to",
          "type": "address"
        },
        {
          "indexed": true,
          "internalType": "uint256",
          "name": "tokenId",
          "type": "uint256"
        }
      ],
      "name": "Transfer",
      "type": "event"
    },
    {
      "inputs": [
        {
          "internalType": "address",
          "name": "",
          "type": "address"
        }
      ],
      "name": "_ownedTokenCount",
      "outputs": [
        {
          "internalType": "uint256",
          "name": "",
          "type": "uint256"
        }
      ],
      "stateMutability": "view",
      "type": "function"
    },
    {
      "inputs": [
        {
          "internalType": "uint256",
          "name": "",
          "type": "uint256"
        }
      ],
      "name": "_tokenOwner",
      "outputs": [
        {
          "internalType": "address",
          "name": "",
          "type": "address"
        }
      ],
      "stateMutability": "view",
      "type": "function"
    }
  ],
  "bytecode": "0x608060405234801561001057600080fd5b50610263806100206000396000f3fe608060405234801561001057600080fd5b50600436106100365760003560e01c80635ed049581461003b578063796db3121461006b575b600080fd5b61005560048036038101906100509190610149565b61009b565b604051610062919061018f565b60405180910390f35b610085600480360381019061008091906101d6565b6100b3565b6040516100929190610212565b60405180910390f35b60016020528060005260406000206000915090505481565b60006020528060005260406000206000915054906101000a900473ffffffffffffffffffffffffffffffffffffffff1681565b600080fd5b600073ffffffffffffffffffffffffffffffffffffffff82169050919050565b6000610116826100eb565b9050919050565b6101268161010b565b811461013157600080fd5b50565b6000813590506101438161011d565b92915050565b60006020828403121561015f5761015e6100e6565b5b600061016d84828501610134565b91505092915050565b6000819050919050565b61018981610176565b82525050565b60006020820190506101a46000830184610180565b92915050565b6101b381610176565b81146101be57600080fd5b50565b6000813590506101d0816101aa565b92915050565b6000602082840312156101ec576101eb6100e6565b5b60006101fa848285016101c1565b91505092915050565b61020c8161010b565b82525050565b60006020820190506102276000830184610203565b9291505056fea2646970667358221220afa7c6eed10bb59391d24c618ca936c188cda4c3e0b1a6609e8aadade835b7fa64736f6c63430008090033",
  "immutableReferences": {},
  "source": "// SPDX-License-Identifier: MIT\npragma solidity ^0.8.9;\n\ncontract ERC721 {\n    event Transfer(address indexed from, address indexed to, uint256 indexed tokenId);\n    \n    mapping(uint256 => address) public _tokenOwner;\n    mapping(address => uint256) public _ownedTokenCount;\n    \n    function _exists(uint256 tokenId) internal view returns (bool) {\n        address owner = _tokenOwner[tokenId];\n        return owner!=address(0); \n    }\n\n    function _mint(address to, uint256 tokenId) internal {\n        require(to!= address(0), 'ERC721 minting to the 0 address');\n        require(!_exists(tokenId), 'ERC721 minting token already minted');\n        _tokenOwner[tokenId] = to;\n        _ownedTokenCount[to]++;\n        emit Transfer(address(0), to, tokenId);\n        \n    }\n\n}",
  "sourcePath": "/Users/ibtehazutsay/Documents/Web Development.nosync/nft-marketplace-starter-kit/src/contracts/ERC721.sol",
  "compiler": {
    "name": "solc",
    "version": "0.8.9+commit.e5eed63a.Emscripten.clang"
  },
  "schemaVersion": "3.4.3",
  "updatedAt": "2021-11-06T05:47:57.178Z",
  "devdoc": {
    "kind": "dev",
    "methods": {},
    "version": 1
  },
  "userdoc": {
    "kind": "user",
    "methods": {},
    "version": 1
  }
}