{
  "contractName": "ERC721Enumerable",
  "abi": [
    {
      "inputs": [],
      "stateMutability": "nonpayable",
      "type": "constructor"
    },
    {
      "anonymous": false,
      "inputs": [
        {
          "indexed": true,
          "internalType": "address",
          "name": "_owner",
          "type": "address"
        },
        {
          "indexed": true,
          "internalType": "address",
          "name": "_approved",
          "type": "address"
        },
        {
          "indexed": true,
          "internalType": "uint256",
          "name": "_tokenId",
          "type": "uint256"
        }
      ],
      "name": "Approval",
      "type": "event"
    },
    {
      "anonymous": false,
      "inputs": [
        {
          "indexed": true,
          "internalType": "address",
          "name": "_from",
          "type": "address"
        },
        {
          "indexed": true,
          "internalType": "address",
          "name": "_to",
          "type": "address"
        },
        {
          "indexed": true,
          "internalType": "uint256",
          "name": "_tokenId",
          "type": "uint256"
        }
      ],
      "name": "Transfer",
      "type": "event"
    },
    {
      "inputs": [
        {
          "internalType": "address",
          "name": "",
          "type": "address"
        }
      ],
      "name": "_ownedTokenCount",
      "outputs": [
        {
          "internalType": "uint256",
          "name": "",
          "type": "uint256"
        }
      ],
      "stateMutability": "view",
      "type": "function"
    },
    {
      "inputs": [
        {
          "internalType": "uint256",
          "name": "",
          "type": "uint256"
        }
      ],
      "name": "_tokenOwner",
      "outputs": [
        {
          "internalType": "address",
          "name": "",
          "type": "address"
        }
      ],
      "stateMutability": "view",
      "type": "function"
    },
    {
      "inputs": [
        {
          "internalType": "address",
          "name": "_to",
          "type": "address"
        },
        {
          "internalType": "uint256",
          "name": "tokenId",
          "type": "uint256"
        }
      ],
      "name": "approve",
      "outputs": [],
      "stateMutability": "nonpayable",
      "type": "function"
    },
    {
      "inputs": [
        {
          "internalType": "address",
          "name": "_owner",
          "type": "address"
        }
      ],
      "name": "balanceOf",
      "outputs": [
        {
          "internalType": "uint256",
          "name": "",
          "type": "uint256"
        }
      ],
      "stateMutability": "view",
      "type": "function"
    },
    {
      "inputs": [
        {
          "internalType": "uint256",
          "name": "_tokenId",
          "type": "uint256"
        }
      ],
      "name": "ownerOf",
      "outputs": [
        {
          "internalType": "address",
          "name": "",
          "type": "address"
        }
      ],
      "stateMutability": "view",
      "type": "function"
    },
    {
      "inputs": [
        {
          "internalType": "bytes4",
          "name": "interfaceID",
          "type": "bytes4"
        }
      ],
      "name": "supportsInterface",
      "outputs": [
        {
          "internalType": "bool",
          "name": "",
          "type": "bool"
        }
      ],
      "stateMutability": "view",
      "type": "function"
    },
    {
      "inputs": [
        {
          "internalType": "address",
          "name": "_from",
          "type": "address"
        },
        {
          "internalType": "address",
          "name": "_to",
          "type": "address"
        },
        {
          "internalType": "uint256",
          "name": "_tokenId",
          "type": "uint256"
        }
      ],
      "name": "transferFrom",
      "outputs": [],
      "stateMutability": "nonpayable",
      "type": "function"
    },
    {
      "inputs": [],
      "name": "totalSupply",
      "outputs": [
        {
          "internalType": "uint256",
          "name": "",
          "type": "uint256"
        }
      ],
      "stateMutability": "view",
      "type": "function"
    },
    {
      "inputs": [
        {
          "internalType": "uint256",
          "name": "index",
          "type": "uint256"
        }
      ],
      "name": "tokenByIndex",
      "outputs": [
        {
          "internalType": "uint256",
          "name": "",
          "type": "uint256"
        }
      ],
      "stateMutability": "view",
      "type": "function"
    },
    {
      "inputs": [
        {
          "internalType": "address",
          "name": "owner",
          "type": "address"
        },
        {
          "internalType": "uint256",
          "name": "index",
          "type": "uint256"
        }
      ],
      "name": "tokenOfOwnerByIndex",
      "outputs": [
        {
          "internalType": "uint256",
          "name": "",
          "type": "uint256"
        }
      ],
      "stateMutability": "view",
      "type": "function"
    }
  ],
  "bytecode": "0x60806040523480156200001157600080fd5b50620000437f01ffc9a7a5cef8baa21ed3c5c0d7e23accb804b619e9333b597f47a0d84076e26200013360201b60201c565b620000b87f22c82707ba960a14c7592ffb6b8cfaa073fed0048a84cc7fa41f6b5bd8e7f2e47f3a6eb71757dfc6e784c1459d26270140c2c147d95ca985c80026fc5301c3eca17faec5ad6393e26684e060a6dfb8b1a3519c3965e5d2de3d244418a4151a72843118186200013360201b60201c565b6200012d7f8230223f691b981717299fae9549350a0d894555723531f02108b1f522c1a7977f6da5e1284143cdd2d15038a59bde3be031250f00291d64494c12d967b3a4e0c37f07be17a964e270a0d591618b3bc5fd6d3b0c8a95010c5c5fc1ca06f43469bb1c18186200013360201b60201c565b6200028e565b63ffffffff60e01b817bffffffffffffffffffffffffffffffffffffffffffffffffffffffff191614156200019f576040517f08c379a000000000000000000000000000000000000000000000000000000000815260040162000196906200026c565b60405180910390fd5b6001600080837bffffffffffffffffffffffffffffffffffffffffffffffffffffffff19167bffffffffffffffffffffffffffffffffffffffffffffffffffffffff1916815260200190815260200160002060006101000a81548160ff02191690831515021790555050565b600082825260208201905092915050565b7f496e76616c696420696e74657266616365207265717565737400000000000000600082015250565b6000620002546019836200020b565b915062000261826200021c565b602082019050919050565b60006020820190508181036000830152620002878162000245565b9050919050565b611255806200029e6000396000f3fe608060405234801561001057600080fd5b506004361061009e5760003560e01c80634f6ccce7116100665780634f6ccce7146101595780635ed04958146101895780636352211e146101b957806370a08231146101e9578063796db312146102195761009e565b806301ffc9a7146100a3578063095ea7b3146100d357806318160ddd146100ef57806323b872dd1461010d5780632f745c5914610129575b600080fd5b6100bd60048036038101906100b89190610af6565b610249565b6040516100ca9190610b3e565b60405180910390f35b6100ed60048036038101906100e89190610bed565b6102b0565b005b6100f761044c565b6040516101049190610c3c565b60405180910390f35b61012760048036038101906101229190610c57565b610459565b005b610143600480360381019061013e9190610bed565b61047c565b6040516101509190610c3c565b60405180910390f35b610173600480360381019061016e9190610caa565b61052c565b6040516101809190610c3c565b60405180910390f35b6101a3600480360381019061019e9190610cd7565b61059d565b6040516101b09190610c3c565b60405180910390f35b6101d360048036038101906101ce9190610caa565b6105b5565b6040516101e09190610d13565b60405180910390f35b61020360048036038101906101fe9190610cd7565b610667565b6040516102109190610c3c565b60405180910390f35b610233600480360381019061022e9190610caa565b61071f565b6040516102409190610d13565b60405180910390f35b6000806000837bffffffffffffffffffffffffffffffffffffffffffffffffffffffff19167bffffffffffffffffffffffffffffffffffffffffffffffffffffffff1916815260200190815260200160002060009054906101000a900460ff169050919050565b60006102bb826105b5565b90508073ffffffffffffffffffffffffffffffffffffffff168373ffffffffffffffffffffffffffffffffffffffff16141561032c576040517f08c379a000000000000000000000000000000000000000000000000000000000815260040161032390610d8b565b60405180910390fd5b3373ffffffffffffffffffffffffffffffffffffffff168173ffffffffffffffffffffffffffffffffffffffff161461039a576040517f08c379a000000000000000000000000000000000000000000000000000000000815260040161039190610e1d565b60405180910390fd5b826003600084815260200190815260200160002060006101000a81548173ffffffffffffffffffffffffffffffffffffffff021916908373ffffffffffffffffffffffffffffffffffffffff160217905550818373ffffffffffffffffffffffffffffffffffffffff168273ffffffffffffffffffffffffffffffffffffffff167f8c5be1e5ebec7d5bd14f71427d1e84f3dd0314c0f7b2291e5b200ac8c7c3b92560405160405180910390a4505050565b6000600480549050905090565b6104633382610752565b61046c57600080fd5b6104778383836107e1565b505050565b600061048783610667565b82106104c8576040517f08c379a00000000000000000000000000000000000000000000000000000000081526004016104bf90610e89565b60405180910390fd5b600660008473ffffffffffffffffffffffffffffffffffffffff1673ffffffffffffffffffffffffffffffffffffffff168152602001908152602001600020828154811061051957610518610ea9565b5b9060005260206000200154905092915050565b600061053661044c565b8210610577576040517f08c379a000000000000000000000000000000000000000000000000000000000815260040161056e90610f24565b60405180910390fd5b6004828154811061058b5761058a610ea9565b5b90600052602060002001549050919050565b60026020528060005260406000206000915090505481565b6000806001600084815260200190815260200160002060009054906101000a900473ffffffffffffffffffffffffffffffffffffffff169050600073ffffffffffffffffffffffffffffffffffffffff168173ffffffffffffffffffffffffffffffffffffffff16141561065e576040517f08c379a000000000000000000000000000000000000000000000000000000000815260040161065590610fb6565b60405180910390fd5b80915050919050565b60008073ffffffffffffffffffffffffffffffffffffffff168273ffffffffffffffffffffffffffffffffffffffff1614156106d8576040517f08c379a00000000000000000000000000000000000000000000000000000000081526004016106cf90610fb6565b60405180910390fd5b600260008373ffffffffffffffffffffffffffffffffffffffff1673ffffffffffffffffffffffffffffffffffffffff168152602001908152602001600020549050919050565b60016020528060005260406000206000915054906101000a900473ffffffffffffffffffffffffffffffffffffffff1681565b600061075d82610a27565b61079c576040517f08c379a000000000000000000000000000000000000000000000000000000000815260040161079390611022565b60405180910390fd5b60006107a7836105b5565b90508073ffffffffffffffffffffffffffffffffffffffff168473ffffffffffffffffffffffffffffffffffffffff161491505092915050565b600073ffffffffffffffffffffffffffffffffffffffff168273ffffffffffffffffffffffffffffffffffffffff161415610851576040517f08c379a0000000000000000000000000000000000000000000000000000000008152600401610848906110b4565b60405180910390fd5b8273ffffffffffffffffffffffffffffffffffffffff16610871826105b5565b73ffffffffffffffffffffffffffffffffffffffff16146108c7576040517f08c379a00000000000000000000000000000000000000000000000000000000081526004016108be90611146565b60405180910390fd5b6001600260008573ffffffffffffffffffffffffffffffffffffffff1673ffffffffffffffffffffffffffffffffffffffff16815260200190815260200160002060008282546109179190611195565b925050819055506001600260008473ffffffffffffffffffffffffffffffffffffffff1673ffffffffffffffffffffffffffffffffffffffff168152602001908152602001600020600082825461096e91906111c9565b92505081905550816001600083815260200190815260200160002060006101000a81548173ffffffffffffffffffffffffffffffffffffffff021916908373ffffffffffffffffffffffffffffffffffffffff160217905550808273ffffffffffffffffffffffffffffffffffffffff168473ffffffffffffffffffffffffffffffffffffffff167fddf252ad1be2c89b69c2b068fc378daa952ba7f163c4a11628f55a4df523b3ef60405160405180910390a4505050565b6000806001600084815260200190815260200160002060009054906101000a900473ffffffffffffffffffffffffffffffffffffffff169050600073ffffffffffffffffffffffffffffffffffffffff168173ffffffffffffffffffffffffffffffffffffffff161415915050919050565b600080fd5b60007fffffffff0000000000000000000000000000000000000000000000000000000082169050919050565b610ad381610a9e565b8114610ade57600080fd5b50565b600081359050610af081610aca565b92915050565b600060208284031215610b0c57610b0b610a99565b5b6000610b1a84828501610ae1565b91505092915050565b60008115159050919050565b610b3881610b23565b82525050565b6000602082019050610b536000830184610b2f565b92915050565b600073ffffffffffffffffffffffffffffffffffffffff82169050919050565b6000610b8482610b59565b9050919050565b610b9481610b79565b8114610b9f57600080fd5b50565b600081359050610bb181610b8b565b92915050565b6000819050919050565b610bca81610bb7565b8114610bd557600080fd5b50565b600081359050610be781610bc1565b92915050565b60008060408385031215610c0457610c03610a99565b5b6000610c1285828601610ba2565b9250506020610c2385828601610bd8565b9150509250929050565b610c3681610bb7565b82525050565b6000602082019050610c516000830184610c2d565b92915050565b600080600060608486031215610c7057610c6f610a99565b5b6000610c7e86828701610ba2565b9350506020610c8f86828701610ba2565b9250506040610ca086828701610bd8565b9150509250925092565b600060208284031215610cc057610cbf610a99565b5b6000610cce84828501610bd8565b91505092915050565b600060208284031215610ced57610cec610a99565b5b6000610cfb84828501610ba2565b91505092915050565b610d0d81610b79565b82525050565b6000602082019050610d286000830184610d04565b92915050565b600082825260208201905092915050565b7f45524337323120617070726f766520746f206f776e6572000000000000000000600082015250565b6000610d75601783610d2e565b9150610d8082610d3f565b602082019050919050565b60006020820190508181036000830152610da481610d68565b9050919050565b7f4f6e6c7920746865206f776e65722063616e20617070726f766520746f6b656e60008201527f7300000000000000000000000000000000000000000000000000000000000000602082015250565b6000610e07602183610d2e565b9150610e1282610dab565b604082019050919050565b60006020820190508181036000830152610e3681610dfa565b9050919050565b7f676c6f62616c206f776e657220696e646578206f7574206f6620626f756e6473600082015250565b6000610e73602083610d2e565b9150610e7e82610e3d565b602082019050919050565b60006020820190508181036000830152610ea281610e66565b9050919050565b7f4e487b7100000000000000000000000000000000000000000000000000000000600052603260045260246000fd5b7f676c6f62616c20696e646578206f7574206f6620626f756e6473000000000000600082015250565b6000610f0e601a83610d2e565b9150610f1982610ed8565b602082019050919050565b60006020820190508181036000830152610f3d81610f01565b9050919050565b7f4f776e657220717565727920666f72206e6f6e2d6578697374656e7420746f6b60008201527f656e000000000000000000000000000000000000000000000000000000000000602082015250565b6000610fa0602283610d2e565b9150610fab82610f44565b604082019050919050565b60006020820190508181036000830152610fcf81610f93565b9050919050565b7f746f6b656e20646f6573206e6f74206578697374000000000000000000000000600082015250565b600061100c601483610d2e565b915061101782610fd6565b602082019050919050565b6000602082019050818103600083015261103b81610fff565b9050919050565b7f4572726f72202d20455243373231205472616e7366657220746f20746865207a60008201527f65726f2061646472657373000000000000000000000000000000000000000000602082015250565b600061109e602b83610d2e565b91506110a982611042565b604082019050919050565b600060208201905081810360008301526110cd81611091565b9050919050565b7f547279696e6720746f207472616e73666572206120746f6b656e20746865206160008201527f64647265737320646f6573206e6f74206f776e21000000000000000000000000602082015250565b6000611130603483610d2e565b915061113b826110d4565b604082019050919050565b6000602082019050818103600083015261115f81611123565b9050919050565b7f4e487b7100000000000000000000000000000000000000000000000000000000600052601160045260246000fd5b60006111a082610bb7565b91506111ab83610bb7565b9250828210156111be576111bd611166565b5b828203905092915050565b60006111d482610bb7565b91506111df83610bb7565b9250827fffffffffffffffffffffffffffffffffffffffffffffffffffffffffffffffff0382111561121457611213611166565b5b82820190509291505056fea2646970667358221220868e3b041c6c1ba41b81d46518457247ddaeda37b489eac68936328797d2187e64736f6c63430008090033",
  "immutableReferences": {},
  "source": "// SPDX-License-Identifier: MIT\npragma solidity ^0.8.0;\nimport './ERC721.sol';\nimport './interfaces/IERC721Enumerable.sol';\n\ncontract ERC721Enumerable is ERC721, IERC721Enumerable {\n    uint256[] private _allTokens;\n    //mapping from tokenId to position in _allTokens array\n    mapping(uint256 => uint256) private _allTokensIndex;\n    //mapping of owner to list of all owned tokens id\n    mapping(address => uint256[]) private _ownedTokens;\n    //mapping from tokenId to index of the owner tokens list\n    mapping(uint256 => uint256) private _ownedTokensIndex;\n\n    constructor() {\n        _registerInterface(bytes4(keccak256(\"totalSupply(bytes4\")^keccak256(\"tokenByIndex(bytes4)\")^keccak256(\"tokenOfOwnerByIndex(bytes4)\")));\n    }\n\n    /// @notice Count NFTs tracked by this contract\n    /// @return A count of valid NFTs tracked by this contract, where each one of\n    ///  them has an assigned and queryable owner not equal to the zero address\n    function totalSupply() public view returns (uint256){\n        return _allTokens.length;\n    }\n\n  \n\n\n    function _mint (address to, uint tokenId) internal override(ERC721) {\n        super._mint(to, tokenId);\n        _addTokensToAllTokenEnumeration(tokenId);\n        _addTokensToOwnerEnumeration(to, tokenId);\n\n    }\n    //add tokens to _allTokens array and set the position of the tokens indexes \n    function _addTokensToAllTokenEnumeration(uint256 tokenId) private {\n        _allTokensIndex[tokenId] = _allTokens.length;\n        _allTokens.push(tokenId);\n        \n    }\n\n    function tokenByIndex(uint256 index) public view returns (uint256) {\n        require(index < totalSupply(), 'global index out of bounds');\n        return _allTokens[index];\n    }\n\n    function tokenOfOwnerByIndex(address owner, uint256 index) public view returns (uint256) {\n        require(index < balanceOf(owner), 'global owner index out of bounds');\n        return _ownedTokens[owner][index];\n    }\n\n    function _addTokensToOwnerEnumeration(address to, uint256 tokenId) private {\n        _ownedTokensIndex[tokenId] = _ownedTokens[to].length;\n        _ownedTokens[to].push(tokenId);\n    }\n\n    \n}",
  "sourcePath": "/Users/ibtehazutsay/Documents/Web Development.nosync/nft-marketplace-starter-kit/src/contracts/ERC721Enumerable.sol",
  "compiler": {
    "name": "solc",
    "version": "0.8.9+commit.e5eed63a.Emscripten.clang"
  },
  "schemaVersion": "3.4.3",
  "updatedAt": "2021-11-07T13:28:59.116Z",
  "devdoc": {
    "kind": "dev",
    "methods": {
      "supportsInterface(bytes4)": {
        "details": "Interface identification is specified in ERC-165. This function  uses less than 30,000 gas.",
        "params": {
          "interfaceID": "The interface identifier, as specified in ERC-165"
        },
        "returns": {
          "_0": "`true` if the contract implements `interfaceID` and  `interfaceID` is not 0xffffffff, `false` otherwise"
        }
      },
      "totalSupply()": {
        "returns": {
          "_0": "A count of valid NFTs tracked by this contract, where each one of  them has an assigned and queryable owner not equal to the zero address"
        }
      }
    },
    "version": 1
  },
  "userdoc": {
    "kind": "user",
    "methods": {
      "supportsInterface(bytes4)": {
        "notice": "Query if a contract implements an interface"
      },
      "totalSupply()": {
        "notice": "Count NFTs tracked by this contract"
      }
    },
    "version": 1
  }
}