{
  "contractName": "ERC721Connector",
  "abi": [
    {
      "inputs": [
        {
          "internalType": "string",
          "name": "name",
          "type": "string"
        },
        {
          "internalType": "string",
          "name": "symbol",
          "type": "string"
        }
      ],
      "stateMutability": "nonpayable",
      "type": "constructor"
    },
    {
      "anonymous": false,
      "inputs": [
        {
          "indexed": true,
          "internalType": "address",
          "name": "_owner",
          "type": "address"
        },
        {
          "indexed": true,
          "internalType": "address",
          "name": "_approved",
          "type": "address"
        },
        {
          "indexed": true,
          "internalType": "uint256",
          "name": "_tokenId",
          "type": "uint256"
        }
      ],
      "name": "Approval",
      "type": "event"
    },
    {
      "anonymous": false,
      "inputs": [
        {
          "indexed": true,
          "internalType": "address",
          "name": "_from",
          "type": "address"
        },
        {
          "indexed": true,
          "internalType": "address",
          "name": "_to",
          "type": "address"
        },
        {
          "indexed": true,
          "internalType": "uint256",
          "name": "_tokenId",
          "type": "uint256"
        }
      ],
      "name": "Transfer",
      "type": "event"
    },
    {
      "inputs": [
        {
          "internalType": "address",
          "name": "",
          "type": "address"
        }
      ],
      "name": "_ownedTokenCount",
      "outputs": [
        {
          "internalType": "uint256",
          "name": "",
          "type": "uint256"
        }
      ],
      "stateMutability": "view",
      "type": "function"
    },
    {
      "inputs": [
        {
          "internalType": "uint256",
          "name": "",
          "type": "uint256"
        }
      ],
      "name": "_tokenOwner",
      "outputs": [
        {
          "internalType": "address",
          "name": "",
          "type": "address"
        }
      ],
      "stateMutability": "view",
      "type": "function"
    },
    {
      "inputs": [
        {
          "internalType": "address",
          "name": "_to",
          "type": "address"
        },
        {
          "internalType": "uint256",
          "name": "tokenId",
          "type": "uint256"
        }
      ],
      "name": "approve",
      "outputs": [],
      "stateMutability": "nonpayable",
      "type": "function"
    },
    {
      "inputs": [
        {
          "internalType": "address",
          "name": "_owner",
          "type": "address"
        }
      ],
      "name": "balanceOf",
      "outputs": [
        {
          "internalType": "uint256",
          "name": "",
          "type": "uint256"
        }
      ],
      "stateMutability": "view",
      "type": "function"
    },
    {
      "inputs": [],
      "name": "name",
      "outputs": [
        {
          "internalType": "string",
          "name": "",
          "type": "string"
        }
      ],
      "stateMutability": "view",
      "type": "function"
    },
    {
      "inputs": [
        {
          "internalType": "uint256",
          "name": "_tokenId",
          "type": "uint256"
        }
      ],
      "name": "ownerOf",
      "outputs": [
        {
          "internalType": "address",
          "name": "",
          "type": "address"
        }
      ],
      "stateMutability": "view",
      "type": "function"
    },
    {
      "inputs": [
        {
          "internalType": "bytes4",
          "name": "interfaceID",
          "type": "bytes4"
        }
      ],
      "name": "supportsInterface",
      "outputs": [
        {
          "internalType": "bool",
          "name": "",
          "type": "bool"
        }
      ],
      "stateMutability": "view",
      "type": "function"
    },
    {
      "inputs": [],
      "name": "symbol",
      "outputs": [
        {
          "internalType": "string",
          "name": "",
          "type": "string"
        }
      ],
      "stateMutability": "view",
      "type": "function"
    },
    {
      "inputs": [
        {
          "internalType": "uint256",
          "name": "index",
          "type": "uint256"
        }
      ],
      "name": "tokenByIndex",
      "outputs": [
        {
          "internalType": "uint256",
          "name": "",
          "type": "uint256"
        }
      ],
      "stateMutability": "view",
      "type": "function"
    },
    {
      "inputs": [
        {
          "internalType": "address",
          "name": "owner",
          "type": "address"
        },
        {
          "internalType": "uint256",
          "name": "index",
          "type": "uint256"
        }
      ],
      "name": "tokenOfOwnerByIndex",
      "outputs": [
        {
          "internalType": "uint256",
          "name": "",
          "type": "uint256"
        }
      ],
      "stateMutability": "view",
      "type": "function"
    },
    {
      "inputs": [],
      "name": "totalSupply",
      "outputs": [
        {
          "internalType": "uint256",
          "name": "",
          "type": "uint256"
        }
      ],
      "stateMutability": "view",
      "type": "function"
    },
    {
      "inputs": [
        {
          "internalType": "address",
          "name": "_from",
          "type": "address"
        },
        {
          "internalType": "address",
          "name": "_to",
          "type": "address"
        },
        {
          "internalType": "uint256",
          "name": "_tokenId",
          "type": "uint256"
        }
      ],
      "name": "transferFrom",
      "outputs": [],
      "stateMutability": "nonpayable",
      "type": "function"
    }
  ],
  "bytecode": "0x60806040523480156200001157600080fd5b5060405162001b5b38038062001b5b833981810160405281019062000037919062000508565b81816200006a7f01ffc9a7a5cef8baa21ed3c5c0d7e23accb804b619e9333b597f47a0d84076e2620001e360201b60201c565b620000bd7f13b182f4c0e5b2efbac0efe6cf6d756c8b89f4b79c5707a043ed9ea740574ee97fc6eafd1c6ea7dd56c180de045e12a2cb66258d59a48110825d60a7c13ea1935918620001e360201b60201c565b8160019080519060200190620000d5929190620002bb565b508060029080519060200190620000ee929190620002bb565b505050620001667f22c82707ba960a14c7592ffb6b8cfaa073fed0048a84cc7fa41f6b5bd8e7f2e47f3a6eb71757dfc6e784c1459d26270140c2c147d95ca985c80026fc5301c3eca17faec5ad6393e26684e060a6dfb8b1a3519c3965e5d2de3d244418a4151a7284311818620001e360201b60201c565b620001db7f8230223f691b981717299fae9549350a0d894555723531f02108b1f522c1a7977f6da5e1284143cdd2d15038a59bde3be031250f00291d64494c12d967b3a4e0c37f07be17a964e270a0d591618b3bc5fd6d3b0c8a95010c5c5fc1ca06f43469bb1c1818620001e360201b60201c565b505062000675565b63ffffffff60e01b817bffffffffffffffffffffffffffffffffffffffffffffffffffffffff191614156200024f576040517f08c379a00000000000000000000000000000000000000000000000000000000081526004016200024690620005ee565b60405180910390fd5b6001600080837bffffffffffffffffffffffffffffffffffffffffffffffffffffffff19167bffffffffffffffffffffffffffffffffffffffffffffffffffffffff1916815260200190815260200160002060006101000a81548160ff02191690831515021790555050565b828054620002c9906200063f565b90600052602060002090601f016020900481019282620002ed576000855562000339565b82601f106200030857805160ff191683800117855562000339565b8280016001018555821562000339579182015b82811115620003385782518255916020019190600101906200031b565b5b5090506200034891906200034c565b5090565b5b80821115620003675760008160009055506001016200034d565b5090565b6000604051905090565b600080fd5b600080fd5b600080fd5b600080fd5b6000601f19601f8301169050919050565b7f4e487b7100000000000000000000000000000000000000000000000000000000600052604160045260246000fd5b620003d48262000389565b810181811067ffffffffffffffff82111715620003f657620003f56200039a565b5b80604052505050565b60006200040b6200036b565b9050620004198282620003c9565b919050565b600067ffffffffffffffff8211156200043c576200043b6200039a565b5b620004478262000389565b9050602081019050919050565b60005b838110156200047457808201518184015260208101905062000457565b8381111562000484576000848401525b50505050565b6000620004a16200049b846200041e565b620003ff565b905082815260208101848484011115620004c057620004bf62000384565b5b620004cd84828562000454565b509392505050565b600082601f830112620004ed57620004ec6200037f565b5b8151620004ff8482602086016200048a565b91505092915050565b6000806040838503121562000522576200052162000375565b5b600083015167ffffffffffffffff8111156200054357620005426200037a565b5b6200055185828601620004d5565b925050602083015167ffffffffffffffff8111156200057557620005746200037a565b5b6200058385828601620004d5565b9150509250929050565b600082825260208201905092915050565b7f496e76616c696420696e74657266616365207265717565737400000000000000600082015250565b6000620005d66019836200058d565b9150620005e3826200059e565b602082019050919050565b600060208201905081810360008301526200060981620005c7565b9050919050565b7f4e487b7100000000000000000000000000000000000000000000000000000000600052602260045260246000fd5b600060028204905060018216806200065857607f821691505b602082108114156200066f576200066e62000610565b5b50919050565b6114d680620006856000396000f3fe608060405234801561001057600080fd5b50600436106100b45760003560e01c80634f6ccce7116100715780634f6ccce71461018d5780635ed04958146101bd5780636352211e146101ed57806370a082311461021d578063796db3121461024d57806395d89b411461027d576100b4565b806301ffc9a7146100b957806306fdde03146100e9578063095ea7b31461010757806318160ddd1461012357806323b872dd146101415780632f745c591461015d575b600080fd5b6100d360048036038101906100ce9190610c6c565b61029b565b6040516100e09190610cb4565b60405180910390f35b6100f1610302565b6040516100fe9190610d68565b60405180910390f35b610121600480360381019061011c9190610e1e565b610394565b005b61012b610530565b6040516101389190610e6d565b60405180910390f35b61015b60048036038101906101569190610e88565b61053d565b005b61017760048036038101906101729190610e1e565b610560565b6040516101849190610e6d565b60405180910390f35b6101a760048036038101906101a29190610edb565b610610565b6040516101b49190610e6d565b60405180910390f35b6101d760048036038101906101d29190610f08565b610681565b6040516101e49190610e6d565b60405180910390f35b61020760048036038101906102029190610edb565b610699565b6040516102149190610f44565b60405180910390f35b61023760048036038101906102329190610f08565b61074b565b6040516102449190610e6d565b60405180910390f35b61026760048036038101906102629190610edb565b610803565b6040516102749190610f44565b60405180910390f35b610285610836565b6040516102929190610d68565b60405180910390f35b6000806000837bffffffffffffffffffffffffffffffffffffffffffffffffffffffff19167bffffffffffffffffffffffffffffffffffffffffffffffffffffffff1916815260200190815260200160002060009054906101000a900460ff169050919050565b60606001805461031190610f8e565b80601f016020809104026020016040519081016040528092919081815260200182805461033d90610f8e565b801561038a5780601f1061035f5761010080835404028352916020019161038a565b820191906000526020600020905b81548152906001019060200180831161036d57829003601f168201915b5050505050905090565b600061039f82610699565b90508073ffffffffffffffffffffffffffffffffffffffff168373ffffffffffffffffffffffffffffffffffffffff161415610410576040517f08c379a00000000000000000000000000000000000000000000000000000000081526004016104079061100c565b60405180910390fd5b3373ffffffffffffffffffffffffffffffffffffffff168173ffffffffffffffffffffffffffffffffffffffff161461047e576040517f08c379a00000000000000000000000000000000000000000000000000000000081526004016104759061109e565b60405180910390fd5b826005600084815260200190815260200160002060006101000a81548173ffffffffffffffffffffffffffffffffffffffff021916908373ffffffffffffffffffffffffffffffffffffffff160217905550818373ffffffffffffffffffffffffffffffffffffffff168273ffffffffffffffffffffffffffffffffffffffff167f8c5be1e5ebec7d5bd14f71427d1e84f3dd0314c0f7b2291e5b200ac8c7c3b92560405160405180910390a4505050565b6000600680549050905090565b61054733826108c8565b61055057600080fd5b61055b838383610957565b505050565b600061056b8361074b565b82106105ac576040517f08c379a00000000000000000000000000000000000000000000000000000000081526004016105a39061110a565b60405180910390fd5b600860008473ffffffffffffffffffffffffffffffffffffffff1673ffffffffffffffffffffffffffffffffffffffff16815260200190815260200160002082815481106105fd576105fc61112a565b5b9060005260206000200154905092915050565b600061061a610530565b821061065b576040517f08c379a0000000000000000000000000000000000000000000000000000000008152600401610652906111a5565b60405180910390fd5b6006828154811061066f5761066e61112a565b5b90600052602060002001549050919050565b60046020528060005260406000206000915090505481565b6000806003600084815260200190815260200160002060009054906101000a900473ffffffffffffffffffffffffffffffffffffffff169050600073ffffffffffffffffffffffffffffffffffffffff168173ffffffffffffffffffffffffffffffffffffffff161415610742576040517f08c379a000000000000000000000000000000000000000000000000000000000815260040161073990611237565b60405180910390fd5b80915050919050565b60008073ffffffffffffffffffffffffffffffffffffffff168273ffffffffffffffffffffffffffffffffffffffff1614156107bc576040517f08c379a00000000000000000000000000000000000000000000000000000000081526004016107b390611237565b60405180910390fd5b600460008373ffffffffffffffffffffffffffffffffffffffff1673ffffffffffffffffffffffffffffffffffffffff168152602001908152602001600020549050919050565b60036020528060005260406000206000915054906101000a900473ffffffffffffffffffffffffffffffffffffffff1681565b60606002805461084590610f8e565b80601f016020809104026020016040519081016040528092919081815260200182805461087190610f8e565b80156108be5780601f10610893576101008083540402835291602001916108be565b820191906000526020600020905b8154815290600101906020018083116108a157829003601f168201915b5050505050905090565b60006108d382610b9d565b610912576040517f08c379a0000000000000000000000000000000000000000000000000000000008152600401610909906112a3565b60405180910390fd5b600061091d83610699565b90508073ffffffffffffffffffffffffffffffffffffffff168473ffffffffffffffffffffffffffffffffffffffff161491505092915050565b600073ffffffffffffffffffffffffffffffffffffffff168273ffffffffffffffffffffffffffffffffffffffff1614156109c7576040517f08c379a00000000000000000000000000000000000000000000000000000000081526004016109be90611335565b60405180910390fd5b8273ffffffffffffffffffffffffffffffffffffffff166109e782610699565b73ffffffffffffffffffffffffffffffffffffffff1614610a3d576040517f08c379a0000000000000000000000000000000000000000000000000000000008152600401610a34906113c7565b60405180910390fd5b6001600460008573ffffffffffffffffffffffffffffffffffffffff1673ffffffffffffffffffffffffffffffffffffffff1681526020019081526020016000206000828254610a8d9190611416565b925050819055506001600460008473ffffffffffffffffffffffffffffffffffffffff1673ffffffffffffffffffffffffffffffffffffffff1681526020019081526020016000206000828254610ae4919061144a565b92505081905550816003600083815260200190815260200160002060006101000a81548173ffffffffffffffffffffffffffffffffffffffff021916908373ffffffffffffffffffffffffffffffffffffffff160217905550808273ffffffffffffffffffffffffffffffffffffffff168473ffffffffffffffffffffffffffffffffffffffff167fddf252ad1be2c89b69c2b068fc378daa952ba7f163c4a11628f55a4df523b3ef60405160405180910390a4505050565b6000806003600084815260200190815260200160002060009054906101000a900473ffffffffffffffffffffffffffffffffffffffff169050600073ffffffffffffffffffffffffffffffffffffffff168173ffffffffffffffffffffffffffffffffffffffff161415915050919050565b600080fd5b60007fffffffff0000000000000000000000000000000000000000000000000000000082169050919050565b610c4981610c14565b8114610c5457600080fd5b50565b600081359050610c6681610c40565b92915050565b600060208284031215610c8257610c81610c0f565b5b6000610c9084828501610c57565b91505092915050565b60008115159050919050565b610cae81610c99565b82525050565b6000602082019050610cc96000830184610ca5565b92915050565b600081519050919050565b600082825260208201905092915050565b60005b83811015610d09578082015181840152602081019050610cee565b83811115610d18576000848401525b50505050565b6000601f19601f8301169050919050565b6000610d3a82610ccf565b610d448185610cda565b9350610d54818560208601610ceb565b610d5d81610d1e565b840191505092915050565b60006020820190508181036000830152610d828184610d2f565b905092915050565b600073ffffffffffffffffffffffffffffffffffffffff82169050919050565b6000610db582610d8a565b9050919050565b610dc581610daa565b8114610dd057600080fd5b50565b600081359050610de281610dbc565b92915050565b6000819050919050565b610dfb81610de8565b8114610e0657600080fd5b50565b600081359050610e1881610df2565b92915050565b60008060408385031215610e3557610e34610c0f565b5b6000610e4385828601610dd3565b9250506020610e5485828601610e09565b9150509250929050565b610e6781610de8565b82525050565b6000602082019050610e826000830184610e5e565b92915050565b600080600060608486031215610ea157610ea0610c0f565b5b6000610eaf86828701610dd3565b9350506020610ec086828701610dd3565b9250506040610ed186828701610e09565b9150509250925092565b600060208284031215610ef157610ef0610c0f565b5b6000610eff84828501610e09565b91505092915050565b600060208284031215610f1e57610f1d610c0f565b5b6000610f2c84828501610dd3565b91505092915050565b610f3e81610daa565b82525050565b6000602082019050610f596000830184610f35565b92915050565b7f4e487b7100000000000000000000000000000000000000000000000000000000600052602260045260246000fd5b60006002820490506001821680610fa657607f821691505b60208210811415610fba57610fb9610f5f565b5b50919050565b7f45524337323120617070726f766520746f206f776e6572000000000000000000600082015250565b6000610ff6601783610cda565b915061100182610fc0565b602082019050919050565b6000602082019050818103600083015261102581610fe9565b9050919050565b7f4f6e6c7920746865206f776e65722063616e20617070726f766520746f6b656e60008201527f7300000000000000000000000000000000000000000000000000000000000000602082015250565b6000611088602183610cda565b91506110938261102c565b604082019050919050565b600060208201905081810360008301526110b78161107b565b9050919050565b7f676c6f62616c206f776e657220696e646578206f7574206f6620626f756e6473600082015250565b60006110f4602083610cda565b91506110ff826110be565b602082019050919050565b60006020820190508181036000830152611123816110e7565b9050919050565b7f4e487b7100000000000000000000000000000000000000000000000000000000600052603260045260246000fd5b7f676c6f62616c20696e646578206f7574206f6620626f756e6473000000000000600082015250565b600061118f601a83610cda565b915061119a82611159565b602082019050919050565b600060208201905081810360008301526111be81611182565b9050919050565b7f4f776e657220717565727920666f72206e6f6e2d6578697374656e7420746f6b60008201527f656e000000000000000000000000000000000000000000000000000000000000602082015250565b6000611221602283610cda565b915061122c826111c5565b604082019050919050565b6000602082019050818103600083015261125081611214565b9050919050565b7f746f6b656e20646f6573206e6f74206578697374000000000000000000000000600082015250565b600061128d601483610cda565b915061129882611257565b602082019050919050565b600060208201905081810360008301526112bc81611280565b9050919050565b7f4572726f72202d20455243373231205472616e7366657220746f20746865207a60008201527f65726f2061646472657373000000000000000000000000000000000000000000602082015250565b600061131f602b83610cda565b915061132a826112c3565b604082019050919050565b6000602082019050818103600083015261134e81611312565b9050919050565b7f547279696e6720746f207472616e73666572206120746f6b656e20746865206160008201527f64647265737320646f6573206e6f74206f776e21000000000000000000000000602082015250565b60006113b1603483610cda565b91506113bc82611355565b604082019050919050565b600060208201905081810360008301526113e0816113a4565b9050919050565b7f4e487b7100000000000000000000000000000000000000000000000000000000600052601160045260246000fd5b600061142182610de8565b915061142c83610de8565b92508282101561143f5761143e6113e7565b5b828203905092915050565b600061145582610de8565b915061146083610de8565b9250827fffffffffffffffffffffffffffffffffffffffffffffffffffffffffffffffff03821115611495576114946113e7565b5b82820190509291505056fea2646970667358221220dc2e5c75812e0af3a50dd648ee2f37aba42d9cffd66186cf8790021bf61f2abe64736f6c63430008090033",
  "immutableReferences": {},
  "source": "// SPDX-License-Identifier: MIT\npragma solidity ^0.8.0;\n\nimport './ERC721Metadata.sol';\nimport './ERC721Enumerable.sol';\n\ncontract ERC721Connector is ERC721Metadata, ERC721Enumerable {\n    constructor(string memory name, string memory symbol) ERC721Metadata(name, symbol) {\n\n    \n    }\n}",
  "sourcePath": "/Users/ibtehazutsay/Documents/Web Development.nosync/nft-marketplace-starter-kit/src/contracts/ERC721Connector.sol",
  "compiler": {
    "name": "solc",
    "version": "0.8.9+commit.e5eed63a.Emscripten.clang"
  },
  "schemaVersion": "3.4.3",
  "updatedAt": "2021-11-07T13:28:59.112Z",
  "devdoc": {
    "kind": "dev",
    "methods": {
      "supportsInterface(bytes4)": {
        "details": "Interface identification is specified in ERC-165. This function  uses less than 30,000 gas.",
        "params": {
          "interfaceID": "The interface identifier, as specified in ERC-165"
        },
        "returns": {
          "_0": "`true` if the contract implements `interfaceID` and  `interfaceID` is not 0xffffffff, `false` otherwise"
        }
      },
      "totalSupply()": {
        "returns": {
          "_0": "A count of valid NFTs tracked by this contract, where each one of  them has an assigned and queryable owner not equal to the zero address"
        }
      }
    },
    "version": 1
  },
  "userdoc": {
    "kind": "user",
    "methods": {
      "supportsInterface(bytes4)": {
        "notice": "Query if a contract implements an interface"
      },
      "totalSupply()": {
        "notice": "Count NFTs tracked by this contract"
      }
    },
    "version": 1
  }
}