{
  "contractName": "KryptoBird",
  "abi": [
    {
      "inputs": [],
      "stateMutability": "nonpayable",
      "type": "constructor"
    },
    {
      "anonymous": false,
      "inputs": [
        {
          "indexed": true,
          "internalType": "address",
          "name": "_owner",
          "type": "address"
        },
        {
          "indexed": true,
          "internalType": "address",
          "name": "_approved",
          "type": "address"
        },
        {
          "indexed": true,
          "internalType": "uint256",
          "name": "_tokenId",
          "type": "uint256"
        }
      ],
      "name": "Approval",
      "type": "event"
    },
    {
      "anonymous": false,
      "inputs": [
        {
          "indexed": true,
          "internalType": "address",
          "name": "_from",
          "type": "address"
        },
        {
          "indexed": true,
          "internalType": "address",
          "name": "_to",
          "type": "address"
        },
        {
          "indexed": true,
          "internalType": "uint256",
          "name": "_tokenId",
          "type": "uint256"
        }
      ],
      "name": "Transfer",
      "type": "event"
    },
    {
      "inputs": [
        {
          "internalType": "address",
          "name": "",
          "type": "address"
        }
      ],
      "name": "_ownedTokenCount",
      "outputs": [
        {
          "internalType": "uint256",
          "name": "",
          "type": "uint256"
        }
      ],
      "stateMutability": "view",
      "type": "function",
      "constant": true
    },
    {
      "inputs": [
        {
          "internalType": "uint256",
          "name": "",
          "type": "uint256"
        }
      ],
      "name": "_tokenOwner",
      "outputs": [
        {
          "internalType": "address",
          "name": "",
          "type": "address"
        }
      ],
      "stateMutability": "view",
      "type": "function",
      "constant": true
    },
    {
      "inputs": [
        {
          "internalType": "address",
          "name": "_to",
          "type": "address"
        },
        {
          "internalType": "uint256",
          "name": "tokenId",
          "type": "uint256"
        }
      ],
      "name": "approve",
      "outputs": [],
      "stateMutability": "nonpayable",
      "type": "function"
    },
    {
      "inputs": [
        {
          "internalType": "address",
          "name": "_owner",
          "type": "address"
        }
      ],
      "name": "balanceOf",
      "outputs": [
        {
          "internalType": "uint256",
          "name": "",
          "type": "uint256"
        }
      ],
      "stateMutability": "view",
      "type": "function",
      "constant": true
    },
    {
      "inputs": [
        {
          "internalType": "uint256",
          "name": "",
          "type": "uint256"
        }
      ],
      "name": "kryptoBirdz",
      "outputs": [
        {
          "internalType": "string",
          "name": "",
          "type": "string"
        }
      ],
      "stateMutability": "view",
      "type": "function",
      "constant": true
    },
    {
      "inputs": [],
      "name": "name",
      "outputs": [
        {
          "internalType": "string",
          "name": "",
          "type": "string"
        }
      ],
      "stateMutability": "view",
      "type": "function",
      "constant": true
    },
    {
      "inputs": [
        {
          "internalType": "uint256",
          "name": "_tokenId",
          "type": "uint256"
        }
      ],
      "name": "ownerOf",
      "outputs": [
        {
          "internalType": "address",
          "name": "",
          "type": "address"
        }
      ],
      "stateMutability": "view",
      "type": "function",
      "constant": true
    },
    {
      "inputs": [
        {
          "internalType": "bytes4",
          "name": "interfaceID",
          "type": "bytes4"
        }
      ],
      "name": "supportsInterface",
      "outputs": [
        {
          "internalType": "bool",
          "name": "",
          "type": "bool"
        }
      ],
      "stateMutability": "view",
      "type": "function",
      "constant": true
    },
    {
      "inputs": [],
      "name": "symbol",
      "outputs": [
        {
          "internalType": "string",
          "name": "",
          "type": "string"
        }
      ],
      "stateMutability": "view",
      "type": "function",
      "constant": true
    },
    {
      "inputs": [
        {
          "internalType": "uint256",
          "name": "index",
          "type": "uint256"
        }
      ],
      "name": "tokenByIndex",
      "outputs": [
        {
          "internalType": "uint256",
          "name": "",
          "type": "uint256"
        }
      ],
      "stateMutability": "view",
      "type": "function",
      "constant": true
    },
    {
      "inputs": [
        {
          "internalType": "address",
          "name": "owner",
          "type": "address"
        },
        {
          "internalType": "uint256",
          "name": "index",
          "type": "uint256"
        }
      ],
      "name": "tokenOfOwnerByIndex",
      "outputs": [
        {
          "internalType": "uint256",
          "name": "",
          "type": "uint256"
        }
      ],
      "stateMutability": "view",
      "type": "function",
      "constant": true
    },
    {
      "inputs": [],
      "name": "totalSupply",
      "outputs": [
        {
          "internalType": "uint256",
          "name": "",
          "type": "uint256"
        }
      ],
      "stateMutability": "view",
      "type": "function",
      "constant": true
    },
    {
      "inputs": [
        {
          "internalType": "address",
          "name": "_from",
          "type": "address"
        },
        {
          "internalType": "address",
          "name": "_to",
          "type": "address"
        },
        {
          "internalType": "uint256",
          "name": "_tokenId",
          "type": "uint256"
        }
      ],
      "name": "transferFrom",
      "outputs": [],
      "stateMutability": "nonpayable",
      "type": "function"
    },
    {
      "inputs": [
        {
          "internalType": "string",
          "name": "_kryptoBird",
          "type": "string"
        }
      ],
      "name": "mint",
      "outputs": [],
      "stateMutability": "nonpayable",
      "type": "function"
    }
  ],
  "bytecode": "0x60806040523480156200001157600080fd5b506040518060400160405280600a81526020017f4b727970746f42697264000000000000000000000000000000000000000000008152506040518060400160405280600681526020017f4b424952445a00000000000000000000000000000000000000000000000000008152508181620000b17f01ffc9a7a5cef8baa21ed3c5c0d7e23accb804b619e9333b597f47a0d84076e26200022a60201b60201c565b620001047f13b182f4c0e5b2efbac0efe6cf6d756c8b89f4b79c5707a043ed9ea740574ee97fc6eafd1c6ea7dd56c180de045e12a2cb66258d59a48110825d60a7c13ea19359186200022a60201b60201c565b81600190805190602001906200011c92919062000302565b5080600290805190602001906200013592919062000302565b505050620001ad7f22c82707ba960a14c7592ffb6b8cfaa073fed0048a84cc7fa41f6b5bd8e7f2e47f3a6eb71757dfc6e784c1459d26270140c2c147d95ca985c80026fc5301c3eca17faec5ad6393e26684e060a6dfb8b1a3519c3965e5d2de3d244418a4151a72843118186200022a60201b60201c565b620002227f8230223f691b981717299fae9549350a0d894555723531f02108b1f522c1a7977f6da5e1284143cdd2d15038a59bde3be031250f00291d64494c12d967b3a4e0c37f07be17a964e270a0d591618b3bc5fd6d3b0c8a95010c5c5fc1ca06f43469bb1c18186200022a60201b60201c565b50506200049a565b63ffffffff60e01b817bffffffffffffffffffffffffffffffffffffffffffffffffffffffff1916141562000296576040517f08c379a00000000000000000000000000000000000000000000000000000000081526004016200028d9062000413565b60405180910390fd5b6001600080837bffffffffffffffffffffffffffffffffffffffffffffffffffffffff19167bffffffffffffffffffffffffffffffffffffffffffffffffffffffff1916815260200190815260200160002060006101000a81548160ff02191690831515021790555050565b828054620003109062000464565b90600052602060002090601f01602090048101928262000334576000855562000380565b82601f106200034f57805160ff191683800117855562000380565b8280016001018555821562000380579182015b828111156200037f57825182559160200191906001019062000362565b5b5090506200038f919062000393565b5090565b5b80821115620003ae57600081600090555060010162000394565b5090565b600082825260208201905092915050565b7f496e76616c696420696e74657266616365207265717565737400000000000000600082015250565b6000620003fb601983620003b2565b91506200040882620003c3565b602082019050919050565b600060208201905081810360008301526200042e81620003ec565b9050919050565b7f4e487b7100000000000000000000000000000000000000000000000000000000600052602260045260246000fd5b600060028204905060018216806200047d57607f821691505b6020821081141562000494576200049362000435565b5b50919050565b611e5180620004aa6000396000f3fe608060405234801561001057600080fd5b50600436106100ea5760003560e01c80635ed049581161008c578063796db31211610066578063796db3121461028357806393ab6e56146102b357806395d89b41146102e3578063d85d3d2714610301576100ea565b80635ed04958146101f35780636352211e1461022357806370a0823114610253576100ea565b806318160ddd116100c857806318160ddd1461015957806323b872dd146101775780632f745c59146101935780634f6ccce7146101c3576100ea565b806301ffc9a7146100ef57806306fdde031461011f578063095ea7b31461013d575b600080fd5b6101096004803603810190610104919061123d565b61031d565b6040516101169190611285565b60405180910390f35b610127610384565b6040516101349190611339565b60405180910390f35b610157600480360381019061015291906113ef565b610416565b005b6101616105b2565b60405161016e919061143e565b60405180910390f35b610191600480360381019061018c9190611459565b6105bf565b005b6101ad60048036038101906101a891906113ef565b6105e2565b6040516101ba919061143e565b60405180910390f35b6101dd60048036038101906101d891906114ac565b610692565b6040516101ea919061143e565b60405180910390f35b61020d600480360381019061020891906114d9565b610703565b60405161021a919061143e565b60405180910390f35b61023d600480360381019061023891906114ac565b61071b565b60405161024a9190611515565b60405180910390f35b61026d600480360381019061026891906114d9565b6107cd565b60405161027a919061143e565b60405180910390f35b61029d600480360381019061029891906114ac565b610885565b6040516102aa9190611515565b60405180910390f35b6102cd60048036038101906102c891906114ac565b6108b8565b6040516102da9190611339565b60405180910390f35b6102eb610964565b6040516102f89190611339565b60405180910390f35b61031b60048036038101906103169190611665565b6109f6565b005b6000806000837bffffffffffffffffffffffffffffffffffffffffffffffffffffffff19167bffffffffffffffffffffffffffffffffffffffffffffffffffffffff1916815260200190815260200160002060009054906101000a900460ff169050919050565b606060018054610393906116dd565b80601f01602080910402602001604051908101604052809291908181526020018280546103bf906116dd565b801561040c5780601f106103e15761010080835404028352916020019161040c565b820191906000526020600020905b8154815290600101906020018083116103ef57829003601f168201915b5050505050905090565b60006104218261071b565b90508073ffffffffffffffffffffffffffffffffffffffff168373ffffffffffffffffffffffffffffffffffffffff161415610492576040517f08c379a00000000000000000000000000000000000000000000000000000000081526004016104899061175b565b60405180910390fd5b3373ffffffffffffffffffffffffffffffffffffffff168173ffffffffffffffffffffffffffffffffffffffff1614610500576040517f08c379a00000000000000000000000000000000000000000000000000000000081526004016104f7906117ed565b60405180910390fd5b826005600084815260200190815260200160002060006101000a81548173ffffffffffffffffffffffffffffffffffffffff021916908373ffffffffffffffffffffffffffffffffffffffff160217905550818373ffffffffffffffffffffffffffffffffffffffff168273ffffffffffffffffffffffffffffffffffffffff167f8c5be1e5ebec7d5bd14f71427d1e84f3dd0314c0f7b2291e5b200ac8c7c3b92560405160405180910390a4505050565b6000600680549050905090565b6105c93382610af9565b6105d257600080fd5b6105dd838383610b88565b505050565b60006105ed836107cd565b821061062e576040517f08c379a000000000000000000000000000000000000000000000000000000000815260040161062590611859565b60405180910390fd5b600860008473ffffffffffffffffffffffffffffffffffffffff1673ffffffffffffffffffffffffffffffffffffffff168152602001908152602001600020828154811061067f5761067e611879565b5b9060005260206000200154905092915050565b600061069c6105b2565b82106106dd576040517f08c379a00000000000000000000000000000000000000000000000000000000081526004016106d4906118f4565b60405180910390fd5b600682815481106106f1576106f0611879565b5b90600052602060002001549050919050565b60046020528060005260406000206000915090505481565b6000806003600084815260200190815260200160002060009054906101000a900473ffffffffffffffffffffffffffffffffffffffff169050600073ffffffffffffffffffffffffffffffffffffffff168173ffffffffffffffffffffffffffffffffffffffff1614156107c4576040517f08c379a00000000000000000000000000000000000000000000000000000000081526004016107bb90611986565b60405180910390fd5b80915050919050565b60008073ffffffffffffffffffffffffffffffffffffffff168273ffffffffffffffffffffffffffffffffffffffff16141561083e576040517f08c379a000000000000000000000000000000000000000000000000000000000815260040161083590611986565b60405180910390fd5b600460008373ffffffffffffffffffffffffffffffffffffffff1673ffffffffffffffffffffffffffffffffffffffff168152602001908152602001600020549050919050565b60036020528060005260406000206000915054906101000a900473ffffffffffffffffffffffffffffffffffffffff1681565b600a81815481106108c857600080fd5b9060005260206000200160009150905080546108e3906116dd565b80601f016020809104026020016040519081016040528092919081815260200182805461090f906116dd565b801561095c5780601f106109315761010080835404028352916020019161095c565b820191906000526020600020905b81548152906001019060200180831161093f57829003601f168201915b505050505081565b606060028054610973906116dd565b80601f016020809104026020016040519081016040528092919081815260200182805461099f906116dd565b80156109ec5780601f106109c1576101008083540402835291602001916109ec565b820191906000526020600020905b8154815290600101906020018083116109cf57829003601f168201915b5050505050905090565b600b81604051610a0691906119e2565b908152602001604051809103902060009054906101000a900460ff1615610a62576040517f08c379a0000000000000000000000000000000000000000000000000000000008152600401610a5990611a6b565b60405180910390fd5b600a81908060018154018082558091505060019003906000526020600020016000909190919091509080519060200190610a9d92919061112e565b5060006001600a80549050610ab29190611aba565b9050610abe3382610dce565b6001600b83604051610ad091906119e2565b908152602001604051809103902060006101000a81548160ff0219169083151502179055505050565b6000610b0482610def565b610b43576040517f08c379a0000000000000000000000000000000000000000000000000000000008152600401610b3a90611b3a565b60405180910390fd5b6000610b4e8361071b565b90508073ffffffffffffffffffffffffffffffffffffffff168473ffffffffffffffffffffffffffffffffffffffff161491505092915050565b600073ffffffffffffffffffffffffffffffffffffffff168273ffffffffffffffffffffffffffffffffffffffff161415610bf8576040517f08c379a0000000000000000000000000000000000000000000000000000000008152600401610bef90611bcc565b60405180910390fd5b8273ffffffffffffffffffffffffffffffffffffffff16610c188261071b565b73ffffffffffffffffffffffffffffffffffffffff1614610c6e576040517f08c379a0000000000000000000000000000000000000000000000000000000008152600401610c6590611c5e565b60405180910390fd5b6001600460008573ffffffffffffffffffffffffffffffffffffffff1673ffffffffffffffffffffffffffffffffffffffff1681526020019081526020016000206000828254610cbe9190611aba565b925050819055506001600460008473ffffffffffffffffffffffffffffffffffffffff1673ffffffffffffffffffffffffffffffffffffffff1681526020019081526020016000206000828254610d159190611c7e565b92505081905550816003600083815260200190815260200160002060006101000a81548173ffffffffffffffffffffffffffffffffffffffff021916908373ffffffffffffffffffffffffffffffffffffffff160217905550808273ffffffffffffffffffffffffffffffffffffffff168473ffffffffffffffffffffffffffffffffffffffff167fddf252ad1be2c89b69c2b068fc378daa952ba7f163c4a11628f55a4df523b3ef60405160405180910390a4505050565b610dd88282610e61565b610de181611021565b610deb828261106a565b5050565b6000806003600084815260200190815260200160002060009054906101000a900473ffffffffffffffffffffffffffffffffffffffff169050600073ffffffffffffffffffffffffffffffffffffffff168173ffffffffffffffffffffffffffffffffffffffff161415915050919050565b600073ffffffffffffffffffffffffffffffffffffffff168273ffffffffffffffffffffffffffffffffffffffff161415610ed1576040517f08c379a0000000000000000000000000000000000000000000000000000000008152600401610ec890611d20565b60405180910390fd5b610eda81610def565b15610f1a576040517f08c379a0000000000000000000000000000000000000000000000000000000008152600401610f1190611db2565b60405180910390fd5b816003600083815260200190815260200160002060006101000a81548173ffffffffffffffffffffffffffffffffffffffff021916908373ffffffffffffffffffffffffffffffffffffffff160217905550600460008373ffffffffffffffffffffffffffffffffffffffff1673ffffffffffffffffffffffffffffffffffffffff1681526020019081526020016000206000815480929190610fbc90611dd2565b9190505550808273ffffffffffffffffffffffffffffffffffffffff16600073ffffffffffffffffffffffffffffffffffffffff167fddf252ad1be2c89b69c2b068fc378daa952ba7f163c4a11628f55a4df523b3ef60405160405180910390a45050565b6006805490506007600083815260200190815260200160002081905550600681908060018154018082558091505060019003906000526020600020016000909190919091505550565b600860008373ffffffffffffffffffffffffffffffffffffffff1673ffffffffffffffffffffffffffffffffffffffff168152602001908152602001600020805490506009600083815260200190815260200160002081905550600860008373ffffffffffffffffffffffffffffffffffffffff1673ffffffffffffffffffffffffffffffffffffffff1681526020019081526020016000208190806001815401808255809150506001900390600052602060002001600090919091909150555050565b82805461113a906116dd565b90600052602060002090601f01602090048101928261115c57600085556111a3565b82601f1061117557805160ff19168380011785556111a3565b828001600101855582156111a3579182015b828111156111a2578251825591602001919060010190611187565b5b5090506111b091906111b4565b5090565b5b808211156111cd5760008160009055506001016111b5565b5090565b6000604051905090565b600080fd5b600080fd5b60007fffffffff0000000000000000000000000000000000000000000000000000000082169050919050565b61121a816111e5565b811461122557600080fd5b50565b60008135905061123781611211565b92915050565b600060208284031215611253576112526111db565b5b600061126184828501611228565b91505092915050565b60008115159050919050565b61127f8161126a565b82525050565b600060208201905061129a6000830184611276565b92915050565b600081519050919050565b600082825260208201905092915050565b60005b838110156112da5780820151818401526020810190506112bf565b838111156112e9576000848401525b50505050565b6000601f19601f8301169050919050565b600061130b826112a0565b61131581856112ab565b93506113258185602086016112bc565b61132e816112ef565b840191505092915050565b600060208201905081810360008301526113538184611300565b905092915050565b600073ffffffffffffffffffffffffffffffffffffffff82169050919050565b60006113868261135b565b9050919050565b6113968161137b565b81146113a157600080fd5b50565b6000813590506113b38161138d565b92915050565b6000819050919050565b6113cc816113b9565b81146113d757600080fd5b50565b6000813590506113e9816113c3565b92915050565b60008060408385031215611406576114056111db565b5b6000611414858286016113a4565b9250506020611425858286016113da565b9150509250929050565b611438816113b9565b82525050565b6000602082019050611453600083018461142f565b92915050565b600080600060608486031215611472576114716111db565b5b6000611480868287016113a4565b9350506020611491868287016113a4565b92505060406114a2868287016113da565b9150509250925092565b6000602082840312156114c2576114c16111db565b5b60006114d0848285016113da565b91505092915050565b6000602082840312156114ef576114ee6111db565b5b60006114fd848285016113a4565b91505092915050565b61150f8161137b565b82525050565b600060208201905061152a6000830184611506565b92915050565b600080fd5b600080fd5b7f4e487b7100000000000000000000000000000000000000000000000000000000600052604160045260246000fd5b611572826112ef565b810181811067ffffffffffffffff821117156115915761159061153a565b5b80604052505050565b60006115a46111d1565b90506115b08282611569565b919050565b600067ffffffffffffffff8211156115d0576115cf61153a565b5b6115d9826112ef565b9050602081019050919050565b82818337600083830152505050565b6000611608611603846115b5565b61159a565b90508281526020810184848401111561162457611623611535565b5b61162f8482856115e6565b509392505050565b600082601f83011261164c5761164b611530565b5b813561165c8482602086016115f5565b91505092915050565b60006020828403121561167b5761167a6111db565b5b600082013567ffffffffffffffff811115611699576116986111e0565b5b6116a584828501611637565b91505092915050565b7f4e487b7100000000000000000000000000000000000000000000000000000000600052602260045260246000fd5b600060028204905060018216806116f557607f821691505b60208210811415611709576117086116ae565b5b50919050565b7f45524337323120617070726f766520746f206f776e6572000000000000000000600082015250565b60006117456017836112ab565b91506117508261170f565b602082019050919050565b6000602082019050818103600083015261177481611738565b9050919050565b7f4f6e6c7920746865206f776e65722063616e20617070726f766520746f6b656e60008201527f7300000000000000000000000000000000000000000000000000000000000000602082015250565b60006117d76021836112ab565b91506117e28261177b565b604082019050919050565b60006020820190508181036000830152611806816117ca565b9050919050565b7f676c6f62616c206f776e657220696e646578206f7574206f6620626f756e6473600082015250565b60006118436020836112ab565b915061184e8261180d565b602082019050919050565b6000602082019050818103600083015261187281611836565b9050919050565b7f4e487b7100000000000000000000000000000000000000000000000000000000600052603260045260246000fd5b7f676c6f62616c20696e646578206f7574206f6620626f756e6473000000000000600082015250565b60006118de601a836112ab565b91506118e9826118a8565b602082019050919050565b6000602082019050818103600083015261190d816118d1565b9050919050565b7f4f776e657220717565727920666f72206e6f6e2d6578697374656e7420746f6b60008201527f656e000000000000000000000000000000000000000000000000000000000000602082015250565b60006119706022836112ab565b915061197b82611914565b604082019050919050565b6000602082019050818103600083015261199f81611963565b9050919050565b600081905092915050565b60006119bc826112a0565b6119c681856119a6565b93506119d68185602086016112bc565b80840191505092915050565b60006119ee82846119b1565b915081905092915050565b7f4572726f72202d206b727970746f4269726420616c726561647920657869737460008201527f7300000000000000000000000000000000000000000000000000000000000000602082015250565b6000611a556021836112ab565b9150611a60826119f9565b604082019050919050565b60006020820190508181036000830152611a8481611a48565b9050919050565b7f4e487b7100000000000000000000000000000000000000000000000000000000600052601160045260246000fd5b6000611ac5826113b9565b9150611ad0836113b9565b925082821015611ae357611ae2611a8b565b5b828203905092915050565b7f746f6b656e20646f6573206e6f74206578697374000000000000000000000000600082015250565b6000611b246014836112ab565b9150611b2f82611aee565b602082019050919050565b60006020820190508181036000830152611b5381611b17565b9050919050565b7f4572726f72202d20455243373231205472616e7366657220746f20746865207a60008201527f65726f2061646472657373000000000000000000000000000000000000000000602082015250565b6000611bb6602b836112ab565b9150611bc182611b5a565b604082019050919050565b60006020820190508181036000830152611be581611ba9565b9050919050565b7f547279696e6720746f207472616e73666572206120746f6b656e20746865206160008201527f64647265737320646f6573206e6f74206f776e21000000000000000000000000602082015250565b6000611c486034836112ab565b9150611c5382611bec565b604082019050919050565b60006020820190508181036000830152611c7781611c3b565b9050919050565b6000611c89826113b9565b9150611c94836113b9565b9250827fffffffffffffffffffffffffffffffffffffffffffffffffffffffffffffffff03821115611cc957611cc8611a8b565b5b828201905092915050565b7f455243373231206d696e74696e6720746f207468652030206164647265737300600082015250565b6000611d0a601f836112ab565b9150611d1582611cd4565b602082019050919050565b60006020820190508181036000830152611d3981611cfd565b9050919050565b7f455243373231206d696e74696e6720746f6b656e20616c7265616479206d696e60008201527f7465640000000000000000000000000000000000000000000000000000000000602082015250565b6000611d9c6023836112ab565b9150611da782611d40565b604082019050919050565b60006020820190508181036000830152611dcb81611d8f565b9050919050565b6000611ddd826113b9565b91507fffffffffffffffffffffffffffffffffffffffffffffffffffffffffffffffff821415611e1057611e0f611a8b565b5b60018201905091905056fea2646970667358221220596dd9caa99f07410fe65f6d095775e3a80d43c85a30b5337a7e533195def4c964736f6c63430008090033",
  "immutableReferences": {},
  "source": "// SPDX-License-Identifier: MIT\npragma solidity ^0.8.0;\n\nimport './ERC721Connector.sol';\n\ncontract KryptoBird is ERC721Connector {\n\n    // array to store our nfts\n    string [] public kryptoBirdz;\n\n    mapping(string => bool) _kryptoBirdzExists;\n\n    function mint(string memory _kryptoBird) public {\n\n        require(!_kryptoBirdzExists[_kryptoBird],\n        'Error - kryptoBird already exists');\n        // this is deprecated - uint _id = KryptoBirdz.push(_kryptoBird);\n        kryptoBirdz.push(_kryptoBird);\n        uint _id = kryptoBirdz.length - 1;\n\n        // .push no longer returns the length but a ref to the added element\n        _mint(msg.sender, _id);\n\n        _kryptoBirdzExists[_kryptoBird] = true;\n\n    }\n\n    constructor() ERC721Connector('KryptoBird','KBIRDZ')\n {}\n\n}\n",
  "sourcePath": "/Users/ibtehazutsay/Documents/Web Development.nosync/nft-marketplace-starter-kit/src/contracts/KryptoBirdz.sol",
  "compiler": {
    "name": "solc",
    "version": "0.8.9+commit.e5eed63a.Emscripten.clang"
  },
  "schemaVersion": "3.4.3",
  "updatedAt": "2021-11-07T13:29:28.887Z",
  "networkType": "ethereum",
  "devdoc": {
    "kind": "dev",
    "methods": {
      "supportsInterface(bytes4)": {
        "details": "Interface identification is specified in ERC-165. This function  uses less than 30,000 gas.",
        "params": {
          "interfaceID": "The interface identifier, as specified in ERC-165"
        },
        "returns": {
          "_0": "`true` if the contract implements `interfaceID` and  `interfaceID` is not 0xffffffff, `false` otherwise"
        }
      },
      "totalSupply()": {
        "returns": {
          "_0": "A count of valid NFTs tracked by this contract, where each one of  them has an assigned and queryable owner not equal to the zero address"
        }
      }
    },
    "version": 1
  },
  "userdoc": {
    "kind": "user",
    "methods": {
      "supportsInterface(bytes4)": {
        "notice": "Query if a contract implements an interface"
      },
      "totalSupply()": {
        "notice": "Count NFTs tracked by this contract"
      }
    },
    "version": 1
  }
}