{
  "contractName": "Kryptobird",
  "abi": [
    {
      "inputs": [],
      "stateMutability": "nonpayable",
      "type": "constructor"
    },
    {
      "anonymous": false,
      "inputs": [
        {
          "indexed": true,
          "internalType": "address",
          "name": "from",
          "type": "address"
        },
        {
          "indexed": true,
          "internalType": "address",
          "name": "to",
          "type": "address"
        },
        {
          "indexed": true,
          "internalType": "uint256",
          "name": "tokenId",
          "type": "uint256"
        }
      ],
      "name": "Transfer",
      "type": "event"
    },
    {
      "inputs": [
        {
          "internalType": "uint256",
          "name": "",
          "type": "uint256"
        }
      ],
      "name": "KryptoBirdz",
      "outputs": [
        {
          "internalType": "string",
          "name": "",
          "type": "string"
        }
      ],
      "stateMutability": "view",
      "type": "function",
      "constant": true
    },
    {
      "inputs": [
        {
          "internalType": "address",
          "name": "",
          "type": "address"
        }
      ],
      "name": "_ownedTokenCount",
      "outputs": [
        {
          "internalType": "uint256",
          "name": "",
          "type": "uint256"
        }
      ],
      "stateMutability": "view",
      "type": "function",
      "constant": true
    },
    {
      "inputs": [
        {
          "internalType": "uint256",
          "name": "",
          "type": "uint256"
        }
      ],
      "name": "_tokenOwner",
      "outputs": [
        {
          "internalType": "address",
          "name": "",
          "type": "address"
        }
      ],
      "stateMutability": "view",
      "type": "function",
      "constant": true
    },
    {
      "inputs": [],
      "name": "name",
      "outputs": [
        {
          "internalType": "string",
          "name": "",
          "type": "string"
        }
      ],
      "stateMutability": "view",
      "type": "function",
      "constant": true
    },
    {
      "inputs": [],
      "name": "symbol",
      "outputs": [
        {
          "internalType": "string",
          "name": "",
          "type": "string"
        }
      ],
      "stateMutability": "view",
      "type": "function",
      "constant": true
    },
    {
      "inputs": [
        {
          "internalType": "string",
          "name": "_kryptoBird",
          "type": "string"
        }
      ],
      "name": "mint",
      "outputs": [],
      "stateMutability": "nonpayable",
      "type": "function"
    }
  ],
  "bytecode": "0x60806040523480156200001157600080fd5b506040518060400160405280600a81526020017f4b727970746f62697264000000000000000000000000000000000000000000008152506040518060400160405280600681526020017f4b424952445a00000000000000000000000000000000000000000000000000008152508181816000908051906020019062000098929190620000bc565b508060019080519060200190620000b1929190620000bc565b5050505050620001d1565b828054620000ca906200019b565b90600052602060002090601f016020900481019282620000ee57600085556200013a565b82601f106200010957805160ff19168380011785556200013a565b828001600101855582156200013a579182015b82811115620001395782518255916020019190600101906200011c565b5b5090506200014991906200014d565b5090565b5b80821115620001685760008160009055506001016200014e565b5090565b7f4e487b7100000000000000000000000000000000000000000000000000000000600052602260045260246000fd5b60006002820490506001821680620001b457607f821691505b60208210811415620001cb57620001ca6200016c565b5b50919050565b610df780620001e16000396000f3fe608060405234801561001057600080fd5b50600436106100625760003560e01c806306fdde03146100675780635ed0495814610085578063796db312146100b557806395d89b41146100e5578063a3a1ff5814610103578063d85d3d2714610133575b600080fd5b61006f61014f565b60405161007c91906107db565b60405180910390f35b61009f600480360381019061009a919061086f565b6101e1565b6040516100ac91906108b5565b60405180910390f35b6100cf60048036038101906100ca91906108fc565b6101f9565b6040516100dc9190610938565b60405180910390f35b6100ed61022c565b6040516100fa91906107db565b60405180910390f35b61011d600480360381019061011891906108fc565b6102be565b60405161012a91906107db565b60405180910390f35b61014d60048036038101906101489190610a88565b61036a565b005b60606000805461015e90610b00565b80601f016020809104026020016040519081016040528092919081815260200182805461018a90610b00565b80156101d75780601f106101ac576101008083540402835291602001916101d7565b820191906000526020600020905b8154815290600101906020018083116101ba57829003601f168201915b5050505050905090565b60036020528060005260406000206000915090505481565b60026020528060005260406000206000915054906101000a900473ffffffffffffffffffffffffffffffffffffffff1681565b60606001805461023b90610b00565b80601f016020809104026020016040519081016040528092919081815260200182805461026790610b00565b80156102b45780601f10610289576101008083540402835291602001916102b4565b820191906000526020600020905b81548152906001019060200180831161029757829003601f168201915b5050505050905090565b600481815481106102ce57600080fd5b9060005260206000200160009150905080546102e990610b00565b80601f016020809104026020016040519081016040528092919081815260200182805461031590610b00565b80156103625780601f1061033757610100808354040283529160200191610362565b820191906000526020600020905b81548152906001019060200180831161034557829003601f168201915b505050505081565b60058160405161037a9190610b6e565b908152602001604051809103902060009054906101000a900460ff16156103d6576040517f08c379a00000000000000000000000000000000000000000000000000000000081526004016103cd90610bf7565b60405180910390fd5b60048190806001815401808255809150506001900390600052602060002001600090919091909150908051906020019061041192919061069f565b50600060016004805490506104269190610c46565b9050610432338261046d565b60016005836040516104449190610b6e565b908152602001604051809103902060006101000a81548160ff0219169083151502179055505050565b600073ffffffffffffffffffffffffffffffffffffffff168273ffffffffffffffffffffffffffffffffffffffff1614156104dd576040517f08c379a00000000000000000000000000000000000000000000000000000000081526004016104d490610cc6565b60405180910390fd5b6104e68161062d565b15610526576040517f08c379a000000000000000000000000000000000000000000000000000000000815260040161051d90610d58565b60405180910390fd5b816002600083815260200190815260200160002060006101000a81548173ffffffffffffffffffffffffffffffffffffffff021916908373ffffffffffffffffffffffffffffffffffffffff160217905550600360008373ffffffffffffffffffffffffffffffffffffffff1673ffffffffffffffffffffffffffffffffffffffff16815260200190815260200160002060008154809291906105c890610d78565b9190505550808273ffffffffffffffffffffffffffffffffffffffff16600073ffffffffffffffffffffffffffffffffffffffff167fddf252ad1be2c89b69c2b068fc378daa952ba7f163c4a11628f55a4df523b3ef60405160405180910390a45050565b6000806002600084815260200190815260200160002060009054906101000a900473ffffffffffffffffffffffffffffffffffffffff169050600073ffffffffffffffffffffffffffffffffffffffff168173ffffffffffffffffffffffffffffffffffffffff161415915050919050565b8280546106ab90610b00565b90600052602060002090601f0160209004810192826106cd5760008555610714565b82601f106106e657805160ff1916838001178555610714565b82800160010185558215610714579182015b828111156107135782518255916020019190600101906106f8565b5b5090506107219190610725565b5090565b5b8082111561073e576000816000905550600101610726565b5090565b600081519050919050565b600082825260208201905092915050565b60005b8381101561077c578082015181840152602081019050610761565b8381111561078b576000848401525b50505050565b6000601f19601f8301169050919050565b60006107ad82610742565b6107b7818561074d565b93506107c781856020860161075e565b6107d081610791565b840191505092915050565b600060208201905081810360008301526107f581846107a2565b905092915050565b6000604051905090565b600080fd5b600080fd5b600073ffffffffffffffffffffffffffffffffffffffff82169050919050565b600061083c82610811565b9050919050565b61084c81610831565b811461085757600080fd5b50565b60008135905061086981610843565b92915050565b60006020828403121561088557610884610807565b5b60006108938482850161085a565b91505092915050565b6000819050919050565b6108af8161089c565b82525050565b60006020820190506108ca60008301846108a6565b92915050565b6108d98161089c565b81146108e457600080fd5b50565b6000813590506108f6816108d0565b92915050565b60006020828403121561091257610911610807565b5b6000610920848285016108e7565b91505092915050565b61093281610831565b82525050565b600060208201905061094d6000830184610929565b92915050565b600080fd5b600080fd5b7f4e487b7100000000000000000000000000000000000000000000000000000000600052604160045260246000fd5b61099582610791565b810181811067ffffffffffffffff821117156109b4576109b361095d565b5b80604052505050565b60006109c76107fd565b90506109d3828261098c565b919050565b600067ffffffffffffffff8211156109f3576109f261095d565b5b6109fc82610791565b9050602081019050919050565b82818337600083830152505050565b6000610a2b610a26846109d8565b6109bd565b905082815260208101848484011115610a4757610a46610958565b5b610a52848285610a09565b509392505050565b600082601f830112610a6f57610a6e610953565b5b8135610a7f848260208601610a18565b91505092915050565b600060208284031215610a9e57610a9d610807565b5b600082013567ffffffffffffffff811115610abc57610abb61080c565b5b610ac884828501610a5a565b91505092915050565b7f4e487b7100000000000000000000000000000000000000000000000000000000600052602260045260246000fd5b60006002820490506001821680610b1857607f821691505b60208210811415610b2c57610b2b610ad1565b5b50919050565b600081905092915050565b6000610b4882610742565b610b528185610b32565b9350610b6281856020860161075e565b80840191505092915050565b6000610b7a8284610b3d565b915081905092915050565b7f4572726f72202d206b727970746f6269726420616c726561647920657869737460008201527f7300000000000000000000000000000000000000000000000000000000000000602082015250565b6000610be160218361074d565b9150610bec82610b85565b604082019050919050565b60006020820190508181036000830152610c1081610bd4565b9050919050565b7f4e487b7100000000000000000000000000000000000000000000000000000000600052601160045260246000fd5b6000610c518261089c565b9150610c5c8361089c565b925082821015610c6f57610c6e610c17565b5b828203905092915050565b7f455243373231206d696e74696e6720746f207468652030206164647265737300600082015250565b6000610cb0601f8361074d565b9150610cbb82610c7a565b602082019050919050565b60006020820190508181036000830152610cdf81610ca3565b9050919050565b7f455243373231206d696e74696e6720746f6b656e20616c7265616479206d696e60008201527f7465640000000000000000000000000000000000000000000000000000000000602082015250565b6000610d4260238361074d565b9150610d4d82610ce6565b604082019050919050565b60006020820190508181036000830152610d7181610d35565b9050919050565b6000610d838261089c565b91507fffffffffffffffffffffffffffffffffffffffffffffffffffffffffffffffff821415610db657610db5610c17565b5b60018201905091905056fea26469706673582212203aad0b1d9d408fc54f3924de044079ddfe2c4c11a52796b1cd4c4ffe77da8d0464736f6c63430008090033",
  "immutableReferences": {},
  "source": "// SPDX-License-Identifier: MIT\npragma solidity ^0.8.9;\nimport './ERC721Connector.sol';\n\ncontract Kryptobird is ERC721Connector{\n    string[] public KryptoBirdz;\n    mapping(string => bool) _kryptoBirdzExists;\n    function mint(string memory _kryptoBird) public {\n        \n        require(!_kryptoBirdzExists[_kryptoBird], 'Error - kryptobird already exists');\n        KryptoBirdz.push(_kryptoBird);\n        uint _id = uint(KryptoBirdz.length) - 1;\n        _mint(msg.sender, _id);\n        _kryptoBirdzExists[_kryptoBird] = true;\n\n    }\n \n\n    constructor() ERC721Connector(\"Kryptobird\", \"KBIRDZ\") {\n       \n    }\n}",
  "sourcePath": "/Users/ibtehazutsay/Documents/Web Development.nosync/nft-marketplace-starter-kit/src/contracts/KryptoBirdz.sol",
  "compiler": {
    "name": "solc",
    "version": "0.8.9+commit.e5eed63a.Emscripten.clang"
  },
  "schemaVersion": "3.4.3",
  "updatedAt": "2021-11-06T05:56:57.672Z",
  "networkType": "ethereum",
  "devdoc": {
    "kind": "dev",
    "methods": {},
    "version": 1
  },
  "userdoc": {
    "kind": "user",
    "methods": {},
    "version": 1
  }
}